{
  "contractName": "AddressManager",
  "abi": [
    {
      "constant": true,
      "inputs": [
        {
          "name": "_user",
          "type": "address"
        },
        {
          "name": "_pubkey",
          "type": "bytes"
        }
      ],
      "name": "checkUserPubkey",
      "outputs": [
        {
          "name": "",
          "type": "bool"
        }
      ],
      "payable": false,
      "stateMutability": "pure",
      "type": "function"
    },
    {
      "constant": true,
      "inputs": [
        {
          "name": "user",
          "type": "address"
        },
        {
          "name": "publicXPoint",
          "type": "bytes32"
        },
        {
          "name": "publicYPoint",
          "type": "bytes32"
        }
      ],
      "name": "checkEthPubKey",
      "outputs": [
        {
          "name": "",
          "type": "bool"
        }
      ],
      "payable": false,
      "stateMutability": "pure",
      "type": "function"
    }
  ],
  "bytecode": "0x608060405234801561001057600080fd5b50610202806100206000396000f30060806040526004361061004b5763ffffffff7c01000000000000000000000000000000000000000000000000000000006000350416631789a38681146100505780638fa20c9314610098575b600080fd5b34801561005c57600080fd5b5061008473ffffffffffffffffffffffffffffffffffffffff6004351660243560443561010c565b604080519115158252519081900360200190f35b3480156100a457600080fd5b5060408051602060046024803582810135601f810185900485028601850190965285855261008495833573ffffffffffffffffffffffffffffffffffffffff169536956044949193909101919081908401838280828437509497506101b49650505050505050565b6040805160208082018590528183018490528251808303840181526060909201928390528151600093849392909182918401908083835b602083106101625780518252601f199092019160209182019101610143565b5181516020939093036101000a6000190180199091169216919091179052604051920182900390912073ffffffffffffffffffffffffffffffffffffffff988916981697909714979650505050505050565b60208101516040820151600091906101cd85838361010c565b959450505050505600a165627a7a723058206b46adda271a3a4eee690ecee3abcad8ed87121c7fc16df49250ec92a484fe440029",
  "source": "pragma solidity 0.4.24; \n\n\ncontract AddressManager {\n\n    function checkUserPubkey(address _user, bytes _pubkey) public pure returns (bool) {\n        bytes32 pointX;\n        bytes32 pointY;\n\n        assembly {\n            pointX := mload(add(_pubkey, 32))\n            pointY := mload(add(_pubkey, 64))\n        } \n\n        return checkEthPubKey(_user, pointX, pointY);\n    }\n\n    function checkEthPubKey(\n        address user, \n        bytes32 publicXPoint, \n        bytes32 publicYPoint\n    ) \n    \n    public pure returns(bool) {\n        uint hashBytes = uint(keccak256(abi.encodePacked(publicXPoint, publicYPoint)));\n        return hashBytes & 0x00FFFFFFFFFFFFFFFFFFFFFFFFFFFFFFFFFFFFFFFF == uint(user);\n    }\n}",
  "sourcePath": "/Users/sengayusaku/repo/Swingby/contract/contracts/AddressManager.sol",
  "compiler": {
    "name": "solc",
    "version": "0.4.24+commit.e67f0147.Emscripten.clang"
  },
  "schemaVersion": "2.0.1",
  "updatedAt": "2018-08-15T11:59:40.168Z"
}