{
  "contractName": "BTCLib",
  "abi": [
    {
      "constant": true,
      "inputs": [
        {
          "name": "_txBytes",
          "type": "bytes"
        },
        {
          "name": "_pos",
          "type": "uint256"
        }
      ],
      "name": "parseVarInt",
      "outputs": [
        {
          "name": "",
          "type": "uint256"
        },
        {
          "name": "",
          "type": "uint256"
        }
      ],
      "payable": false,
      "stateMutability": "pure",
      "type": "function"
    },
    {
      "constant": true,
      "inputs": [
        {
          "name": "data",
          "type": "bytes"
        },
        {
          "name": "pos",
          "type": "uint256"
        },
        {
          "name": "bits",
          "type": "uint256"
        }
      ],
      "name": "getBytesLE",
      "outputs": [
        {
          "name": "",
          "type": "uint256"
        }
      ],
      "payable": false,
      "stateMutability": "pure",
      "type": "function"
    },
    {
      "constant": true,
      "inputs": [
        {
          "name": "txBytes",
          "type": "bytes"
        }
      ],
      "name": "getFirstTwoOutputs",
      "outputs": [
        {
          "name": "",
          "type": "uint256"
        },
        {
          "name": "",
          "type": "bytes20"
        },
        {
          "name": "",
          "type": "uint256"
        },
        {
          "name": "",
          "type": "bytes20"
        }
      ],
      "payable": false,
      "stateMutability": "pure",
      "type": "function"
    },
    {
      "constant": true,
      "inputs": [
        {
          "name": "_txBytes",
          "type": "bytes"
        },
        {
          "name": "_pos",
          "type": "uint256"
        },
        {
          "name": "_stop",
          "type": "uint256"
        }
      ],
      "name": "scanInputs",
      "outputs": [
        {
          "name": "",
          "type": "uint256[]"
        },
        {
          "name": "",
          "type": "uint256"
        }
      ],
      "payable": false,
      "stateMutability": "pure",
      "type": "function"
    },
    {
      "constant": true,
      "inputs": [
        {
          "name": "txBytes",
          "type": "bytes"
        },
        {
          "name": "_pos",
          "type": "uint256"
        },
        {
          "name": "_stop",
          "type": "uint256"
        }
      ],
      "name": "scanOutputs",
      "outputs": [
        {
          "name": "",
          "type": "uint256[]"
        },
        {
          "name": "",
          "type": "uint256[]"
        },
        {
          "name": "",
          "type": "uint256[]"
        },
        {
          "name": "",
          "type": "uint256"
        }
      ],
      "payable": false,
      "stateMutability": "pure",
      "type": "function"
    },
    {
      "constant": true,
      "inputs": [
        {
          "name": "data",
          "type": "bytes"
        },
        {
          "name": "start",
          "type": "uint256"
        }
      ],
      "name": "sliceBytes20",
      "outputs": [
        {
          "name": "",
          "type": "bytes20"
        }
      ],
      "payable": false,
      "stateMutability": "pure",
      "type": "function"
    },
    {
      "constant": true,
      "inputs": [
        {
          "name": "txBytes",
          "type": "bytes"
        },
        {
          "name": "pos",
          "type": "uint256"
        },
        {
          "name": "script_len",
          "type": "uint256"
        }
      ],
      "name": "isP2PKH",
      "outputs": [
        {
          "name": "",
          "type": "bool"
        }
      ],
      "payable": false,
      "stateMutability": "pure",
      "type": "function"
    },
    {
      "constant": true,
      "inputs": [
        {
          "name": "txBytes",
          "type": "bytes"
        },
        {
          "name": "pos",
          "type": "uint256"
        },
        {
          "name": "script_len",
          "type": "uint256"
        }
      ],
      "name": "isP2SH",
      "outputs": [
        {
          "name": "",
          "type": "bool"
        }
      ],
      "payable": false,
      "stateMutability": "pure",
      "type": "function"
    },
    {
      "constant": true,
      "inputs": [
        {
          "name": "txBytes",
          "type": "bytes"
        },
        {
          "name": "pos",
          "type": "uint256"
        },
        {
          "name": "script_len",
          "type": "uint256"
        }
      ],
      "name": "parseOutputScript",
      "outputs": [
        {
          "name": "",
          "type": "bytes20"
        }
      ],
      "payable": false,
      "stateMutability": "pure",
      "type": "function"
    }
  ],
  "bytecode": "0x611093610030600b82828239805160001a6073146000811461002057610022565bfe5b5030600052607381538281f30073000000000000000000000000000000000000000030146080604052600436106100af5763ffffffff7c01000000000000000000000000000000000000000000000000000000006000350416630d63fdbe81146100b45780634d7dcfbd1461012b5780638c1153221461019257806397a42022146101fb578063cba66e1414610335578063d5c469f814610383578063d5c9712f146103d8578063e0303a2e1461043f578063e0a802ba146104c2575b600080fd5b6040805160206004803580820135601f81018490048402850184019095528484526101099436949293602493928401919081908401838280828437509497505084359550505060209092013591506105729050565b604080516bffffffffffffffffffffffff199092168252519081900360200190f35b6040805160206004803580820135601f810184900484028501840190955284845261017994369492936024939284019190819084018382808284375094975050933594506105bc9350505050565b6040805192835260208301919091528051918290030190f35b6040805160206004803580820135601f81018490048402850184019095528484526101e79436949293602493928401919081908401838280828437509497505084359550505060209092013591506106769050565b604080519115158252519081900360200190f35b6040805160206004803580820135601f81018490048402850184019095528484526102509436949293602493928401919081908401838280828437509497505084359550505060209092013591506107bc9050565b60405180806020018060200180602001858152602001848103845288818151815260200191508051906020019060200280838360005b8381101561029e578181015183820152602001610286565b50505050905001848103835287818151815260200191508051906020019060200280838360005b838110156102dd5781810151838201526020016102c5565b50505050905001848103825286818151815260200191508051906020019060200280838360005b8381101561031c578181015183820152602001610304565b5050505090500197505050505050505060405180910390f35b6040805160206004803580820135601f810184900484028501840190955284845261010994369492936024939284019190819084018382808284375094975050933594506109189350505050565b6040805160206004803580820135601f81018490048402850184019095528484526101e79436949293602493928401919081908401838280828437509497505084359550505060209092013591506109dc9050565b6040805160206004803580820135601f810184900484028501840190955284845261042d943694929360249392840191908190840183828082843750949750508435955050506020909201359150610aa49050565b60408051918252519081900360200190f35b6040805160206004803580820135601f810184900484028501840190955284845261048b943694929360249392840191908190840183828082843750949750610dc59650505050505050565b604080519485526bffffffffffffffffffffffff199384166020860152848101929092529091166060830152519081900360800190f35b6040805160206004803580820135601f8101849004840285018401909552848452610517943694929360249392840191908190840183828082843750949750508435955050506020909201359150610faa9050565b6040518080602001838152602001828103825284818151815260200191508051906020019060200280838360005b8381101561055d578181015183820152602001610545565b50505050905001935050505060405180910390f35b600061057f848484610676565b15610598576105918484600301610918565b90506105b5565b6105a38484846109dc565b156105b5576105918484600201610918565b9392505050565b60008060008085858151811015156105d057fe5b016020015160f860020a908190048102049150506001840160fd60ff831610156106025760ff8216935091508161066d565b8160ff1660fd14156106275761061a86826010610aa4565b816002019350935061066d565b8160ff1660fe141561064c5761063f86826020610aa4565b816004019350935061066d565b8160ff1660ff141561066d5761066486826040610aa4565b81600801935093505b50509250929050565b60008160191480156106b85750838381518110151561069157fe5b90602001015160f860020a900460f860020a02600160f860020a031916607660f860020a02145b80156106f7575083836001018151811015156106d057fe5b90602001015160f860020a900460f860020a02600160f860020a03191660a960f860020a02145b80156107365750838360020181518110151561070f57fe5b90602001015160f860020a900460f860020a02600160f860020a031916601460f860020a02145b80156107755750838360170181518110151561074e57fe5b90602001015160f860020a900460f860020a02600160f860020a031916608860f860020a02145b80156107b45750838360180181518110151561078d57fe5b90602001015160f860020a900460f860020a02600160f860020a03191660ac60f860020a02145b949350505050565b60608080600080808088858080846107d48f866105bc565b90985094508c15806107e55750878d115b156107f2578796506107f6565b8c96505b86604051908082528060200260200182016040528015610820578160200160208202803883390190505b5093508660405190808252806020026020018201604052801561084d578160200160208202803883390190505b5092508660405190808252806020026020018201604052801561087a578160200160208202803883390190505b509150600090505b86811015610904576108968f866040610aa4565b82828151811015156108a457fe5b60209081029091010152600894909401936108bf8f866105bc565b8551919750955085908590839081106108d457fe5b60209081029091010152825186908490839081106108ee57fe5b6020908102909101015293850193600101610882565b509d919c509a509098509650505050505050565b600080805b60148173ffffffffffffffffffffffffffffffffffffffff1610156109c5578060130360080273ffffffffffffffffffffffffffffffffffffffff1685858373ffffffffffffffffffffffffffffffffffffffff160181518110151561097f57fe5b90602001015160f860020a900460f860020a0260f860020a900473ffffffffffffffffffffffffffffffffffffffff169060020a0282019150808060010191505061091d565b506c01000000000000000000000000029392505050565b6000816017148015610a1e575083518490849081106109f757fe5b90602001015160f860020a900460f860020a02600160f860020a03191660a960f860020a02145b8015610a5d57508383600101815181101515610a3657fe5b90602001015160f860020a900460f860020a02600160f860020a031916601460f860020a02145b80156107b457508383601601815181101515610a7557fe5b90602001015160f860020a900460f860020a02600160f860020a031916608760f860020a021490509392505050565b60008160081415610ae1578383815181101515610abd57fe5b90602001015160f860020a900460f860020a0260f860020a900460ff1690506105b5565b8160101415610b4d578383600101815181101515610afb57fe5b90602001015160f860020a900460f860020a0260f860020a9004610100028484815181101515610b2757fe5b90602001015160f860020a900460f860020a0260f860020a90040161ffff1690506105b5565b8160201415610c1e578383600301815181101515610b6757fe5b90602001015160f860020a900460f860020a0260f860020a90046301000000028484600201815181101515610b9857fe5b90602001015160f860020a900460f860020a0260f860020a900462010000028585600101815181101515610bc857fe5b90602001015160f860020a900460f860020a0260f860020a9004610100028686815181101515610bf457fe5b90602001015160f860020a900460f860020a0260f860020a900401010163ffffffff1690506105b5565b81604014156105b5578383600701815181101515610c3857fe5b90602001015160f860020a900460f860020a0260f860020a9004670100000000000000028484600601815181101515610c6d57fe5b90602001015160f860020a900460f860020a0260f860020a90046601000000000000028585600501815181101515610ca157fe5b90602001015160f860020a900460f860020a0260f860020a900465010000000000028686600401815181101515610cd457fe5b90602001015160f860020a900460f860020a0260f860020a9004640100000000028787600301815181101515610d0657fe5b90602001015160f860020a900460f860020a0260f860020a90046301000000028888600201815181101515610d3757fe5b90602001015160f860020a900460f860020a0260f860020a900462010000028989600101815181101515610d6757fe5b90602001015160f860020a900460f860020a0260f860020a9004610100028a8a815181101515610d9357fe5b90602001015160f860020a900460f860020a0260f860020a90040101010101010167ffffffffffffffff1690506105b5565b600080600080600060608060608060606000806002604051908082528060200260200182016040528015610e03578160200160208202803883390190505b50604080516002808252606082018352929950919060208301908038833950506040805160028082526060820183529399509291506020830190803883395050604080516002808252606082018352939850929150602083019080388339505060408051600280825260608201835293975092915060208301908038833901905050925060049750610e978d896000610faa565b98509650610ea78d8960026107bc565b9a50975095509350600091505b6002821015610f2f57610ef68d8684815181101515610ecf57fe5b906020019060200201518885815181101515610ee757fe5b90602001906020020151610572565b9050808383815181101515610f0757fe5b6bffffffffffffffffffffffff19909216602092830290910190910152600190910190610eb4565b836000815181101515610f3e57fe5b90602001906020020151836000815181101515610f5757fe5b90602001906020020151856001815181101515610f7057fe5b90602001906020020151856001815181101515610f8957fe5b906020019060200201519b509b509b509b5050505050505050509193509193565b60606000808080868582610fbe8b846105bc565b9096509250881580610fcf57508589115b15610fdc57859450610fe0565b8894505b8460405190808252806020026020018201604052801561100a578160200160208202803883390190505b509150600090505b848110156110585760248301925061102a8b846105bc565b83519195509350849083908390811061103f57fe5b6020908102909101015291830160040191600101611012565b509990985096505050505050505600a165627a7a7230582040722b373c79ea4dd911ad60d9989ca6f8a7b82cb16835cc75ba711323a62b9d0029",
  "source": "// Bitcoin transaction parsing library\n\n// Copyright 2016 rain <https://keybase.io/rain>\n//\n// Licensed under the Apache License, Version 2.0 (the \"License\");\n// you may not use this file except in compliance with the License.\n// You may obtain a copy of the License at\n//\n//      http://www.apache.org/licenses/LICENSE-2.0\n//\n// Unless required by applicable law or agreed to in writing, software\n// distributed under the License is distributed on an \"AS IS\" BASIS,\n// WITHOUT WARRANTIES OR CONDITIONS OF ANY KIND, either express or implied.\n// See the License for the specific language governing permissions and\n// limitations under the License.\n\n// https://en.bitcoin.it/wiki/Protocol_documentation#tx\n//\n// Raw Bitcoin transaction structure:\n//\n// field     | size | type     | description\n// version   | 4    | int32    | transaction version number\n// n_tx_in   | 1-9  | var_int  | number of transaction inputs\n// tx_in     | 41+  | tx_in[]  | list of transaction inputs\n// n_tx_out  | 1-9  | var_int  | number of transaction outputs\n// tx_out    | 9+   | tx_out[] | list of transaction outputs\n// lock_time | 4    | uint32   | block number / timestamp at which tx locked\n//\n// Transaction input (tx_in) structure:\n//\n// field      | size | type     | description\n// previous   | 36   | outpoint | Previous output transaction reference\n// script_len | 1-9  | var_int  | Length of the signature script\n// sig_script | ?    | uchar[]  | Script for confirming transaction authorization\n// sequence   | 4    | uint32   | Sender transaction version\n//\n// OutPoint structure:\n//\n// field      | size | type     | description\n// hash       | 32   | char[32] | The hash of the referenced transaction\n// index      | 4    | uint32   | The index of this output in the referenced transaction\n//\n// Transaction output (tx_out) structure:\n//\n// field         | size | type     | description\n// value         | 8    | int64    | Transaction value (Satoshis)\n// pk_script_len | 1-9  | var_int  | Length of the public key script\n// pk_script     | ?    | uchar[]  | Public key as a Bitcoin script.\n//\n// Variable integers (var_int) can be encoded differently depending\n// on the represented value, to save space. Variable integers always\n// precede an array of a variable length data type (e.g. tx_in).\n//\n// Variable integer encodings as a function of represented value:\n//\n// value           | bytes  | format\n// <0xFD (253)     | 1      | uint8\n// <=0xFFFF (65535)| 3      | 0xFD followed by length as uint16\n// <=0xFFFF FFFF   | 5      | 0xFE followed by length as uint32\n// -               | 9      | 0xFF followed by length as uint64\n//\n// Public key scripts `pk_script` are set on the output and can\n// take a number of forms. The regular transaction script is\n// called 'pay-to-pubkey-hash' (P2PKH):\n//\n// OP_DUP OP_HASH160 <pubKeyHash> OP_EQUALVERIFY OP_CHECKSIG\n//\n// OP_x are Bitcoin script opcodes. The bytes representation (including\n// the 0x14 20-byte stack push) is:\n//\n// 0x76 0xA9 0x14 <pubKeyHash> 0x88 0xAC\n//\n// The <pubKeyHash> is the ripemd160 hash of the sha256 hash of\n// the public key, preceded by a network version byte. (21 bytes total)\n//\n// Network version bytes: 0x00 (mainnet); 0x6f (testnet); 0x34 (namecoin)\n//\n// The Bitcoin address is derived from the pubKeyHash. The binary form is the\n// pubKeyHash, plus a checksum at the end.  The checksum is the first 4 bytes\n// of the (32 byte) double sha256 of the pubKeyHash. (25 bytes total)\n// This is converted to base58 to form the publicly used Bitcoin address.\n// Mainnet P2PKH transaction scripts are to addresses beginning with '1'.\n//\n// P2SH ('pay to script hash') scripts only supply a script hash. The spender\n// must then provide the script that would allow them to redeem this output.\n// This allows for arbitrarily complex scripts to be funded using only a\n// hash of the script, and moves the onus on providing the script from\n// the spender to the redeemer.\n//\n// The P2SH script format is simple:\n//\n// OP_HASH160 <scriptHash> OP_EQUAL\n//\n// 0xA9 0x14 <scriptHash> 0x87\n//\n// The <scriptHash> is the ripemd160 hash of the sha256 hash of the\n// redeem script. The P2SH address is derived from the scriptHash.\n// Addresses are the scriptHash with a version prefix of 5, encoded as\n// Base58check. These addresses begin with a '3'.\n\npragma solidity ^0.4.18;\n\n// parse a raw bitcoin transaction byte array\nlibrary BTCLib {\n    // Convert a variable integer into something useful and return it and\n    // the index to after it.\n    /**\n     *\n     */\n    function parseVarInt(bytes _txBytes, uint _pos) public pure returns (uint, uint) {\n        // the first byte tells us how big the integer is\n        uint8 ibit = uint8(_txBytes[_pos]);\n        uint pos = _pos;\n        pos += 1;  // skip ibit\n\n        if (ibit < 0xfd) {\n            return (ibit, pos);\n        } else if (ibit == 0xfd) {\n            return (getBytesLE(_txBytes, pos, 16), pos + 2);\n        } else if (ibit == 0xfe) {\n            return (getBytesLE(_txBytes, pos, 32), pos + 4);\n        } else if (ibit == 0xff) {\n            return (getBytesLE(_txBytes, pos, 64), pos + 8);\n        }\n    }\n    // convert little endian bytes to uint\n    function getBytesLE(bytes data, uint pos, uint bits) public pure returns (uint) {\n        if (bits == 8) {\n            return uint8(data[pos]);\n        } else if (bits == 16) {\n            return uint16(data[pos]) + uint16(data[pos + 1]) * 2 ** 8;\n        } else if (bits == 32) {\n            return uint32(data[pos])\n            + uint32(data[pos + 1]) * 2 ** 8\n            + uint32(data[pos + 2]) * 2 ** 16 \n            + uint32(data[pos + 3]) * 2 ** 24;\n        } else if (bits == 64) {\n            return uint64(data[pos])\n            + uint64(data[pos + 1]) * 2 ** 8\n            + uint64(data[pos + 2]) * 2 ** 16\n            + uint64(data[pos + 3]) * 2 ** 24\n            + uint64(data[pos + 4]) * 2 ** 32\n            + uint64(data[pos + 5]) * 2 ** 40\n            + uint64(data[pos + 6]) * 2 ** 48\n            + uint64(data[pos + 7]) * 2 ** 56;\n        }\n    }\n    // scan the full transaction bytes and return the first two output\n    // values (in satoshis) and addresses (in binary)\n    function getFirstTwoOutputs(bytes txBytes) public pure\n             returns (uint, bytes20, uint, bytes20)\n    {\n        uint pos;\n        uint[] memory input_script_lens = new uint[](2);\n        uint[] memory output_script_lens = new uint[](2);\n        uint[] memory script_starts = new uint[](2);\n        uint[] memory output_values = new uint[](2);\n        bytes20[] memory output_addresses = new bytes20[](2);\n\n        pos = 4;  // skip version\n\n        (input_script_lens, pos) = scanInputs(txBytes, pos, 0);\n\n        (output_values, script_starts, output_script_lens, pos) = scanOutputs(txBytes, pos, 2);\n\n        for (uint i = 0; i < 2; i++) {\n            bytes20 pkhash = parseOutputScript(txBytes, script_starts[i], output_script_lens[i]);\n            output_addresses[i] = pkhash;\n        }\n\n        return (output_values[0], output_addresses[0],\n        output_values[1], output_addresses[1]);\n    }\n\n    // scan the inputs and find the script lengths.\n    // return an array of script lengths and the end position\n    // of the inputs.\n    // takes a 'stop' argument which sets the maximum number of\n    // outputs to scan through. stop=0 => scan all.\n    function scanInputs(bytes _txBytes, uint _pos, uint _stop) public pure\n             returns (uint[], uint)\n    {\n        uint n_inputs;\n        uint halt;\n        uint script_len;\n        uint pos = _pos;\n\n        (n_inputs, pos) = parseVarInt(_txBytes, pos);\n\n        if (_stop == 0 || _stop > n_inputs) {\n            halt = n_inputs;\n        } else {\n            halt = _stop;\n        }\n\n        uint[] memory script_lens = new uint[](halt);\n\n        for (uint i = 0; i < halt; i++) {\n            pos += 36;  // skip outpoint\n            (script_len, pos) = parseVarInt(_txBytes, pos);\n            script_lens[i] = script_len;\n            pos += script_len + 4;  // skip sig_script, seq\n        }\n\n        return (script_lens, pos);\n    }\n    // scan the outputs and find the values and script lengths.\n    // return array of values, array of script lengths and the\n    // end position of the outputs.\n    // takes a 'stop' argument which sets the maximum number of\n    // outputs to scan through. stop=0 => scan all.\n    function scanOutputs(bytes txBytes, uint _pos, uint _stop) public pure\n             returns (uint[], uint[], uint[], uint)\n    {\n        uint n_outputs;\n        uint halt;\n        uint script_len;\n        uint pos = _pos;\n\n        (n_outputs, pos) = parseVarInt(txBytes, pos);\n\n        if (_stop == 0 || _stop > n_outputs) {\n            halt = n_outputs;\n        } else {\n            halt = _stop;\n        }\n\n        uint[] memory script_starts = new uint[](halt);\n        uint[] memory script_lens = new uint[](halt);\n        uint[] memory output_values = new uint[](halt);\n\n        for (uint i = 0; i < halt; i++) {\n            output_values[i] = getBytesLE(txBytes, pos, 64);\n            pos += 8;\n\n            (script_len, pos) = parseVarInt(txBytes, pos);\n            script_starts[i] = pos;\n            script_lens[i] = script_len;\n            pos += script_len;\n        }\n\n        return (output_values, script_starts, script_lens, pos);\n    }\n    // Slice 20 contiguous bytes from bytes `data`, starting at `start`\n    function sliceBytes20(bytes data, uint start) public pure returns (bytes20) {\n        uint160 slice = 0;\n        for (uint160 i = 0; i < 20; i++) {\n            slice += uint160(data[i + start]) << (8 * (19 - i));\n        }\n        return bytes20(slice);\n    }\n    // returns true if the bytes located in txBytes by pos and\n    // script_len represent a P2PKH script\n    function isP2PKH(bytes txBytes, uint pos, uint script_len) pure public returns (bool) {\n        return (script_len == 25)           // 20 byte pubkeyhash + 5 bytes of script\n            && (txBytes[pos] == 0x76)       // OP_DUP\n            && (txBytes[pos + 1] == 0xa9)   // OP_HASH160\n            && (txBytes[pos + 2] == 0x14)   // bytes to push\n            && (txBytes[pos + 23] == 0x88)  // OP_EQUALVERIFY\n            && (txBytes[pos + 24] == 0xac); // OP_CHECKSIG\n    }\n    // returns true if the bytes located in txBytes by pos and\n    // script_len represent a P2SH script\n    function isP2SH(bytes txBytes, uint pos, uint script_len) pure public returns (bool) {\n        return (script_len == 23)           // 20 byte scripthash + 3 bytes of script\n            && (txBytes[pos + 0] == 0xa9)   // OP_HASH160\n            && (txBytes[pos + 1] == 0x14)   // bytes to push\n            && (txBytes[pos + 22] == 0x87); // OP_EQUAL\n    }\n    // Get the pubkeyhash / scripthash from an output script. Assumes\n    // pay-to-pubkey-hash (P2PKH) or pay-to-script-hash (P2SH) outputs.\n    // Returns the pubkeyhash/ scripthash, or zero if unknown output.\n    function parseOutputScript(bytes txBytes, uint pos, uint script_len) public pure\n             returns (bytes20)\n    {\n        if (isP2PKH(txBytes, pos, script_len)) {\n            return sliceBytes20(txBytes, pos + 3);\n        } else if (isP2SH(txBytes, pos, script_len)) {\n            return sliceBytes20(txBytes, pos + 2);\n        } else {\n            return;\n        }\n    }\n}\n",
  "sourcePath": "/Users/sengayusaku/repo/Swingby/contract/contracts/BTCLib.sol",
  "compiler": {
    "name": "solc",
    "version": "0.4.24+commit.e67f0147.Emscripten.clang"
  },
  "schemaVersion": "2.0.1",
  "updatedAt": "2018-08-15T11:59:41.030Z"
}