{
  "contractName": "Burner",
  "abi": [
    {
      "constant": false,
      "inputs": [
        {
          "name": "_token",
          "type": "address"
        },
        {
          "name": "_value",
          "type": "uint256"
        }
      ],
      "name": "depositToken",
      "outputs": [],
      "payable": false,
      "stateMutability": "nonpayable",
      "type": "function"
    },
    {
      "constant": false,
      "inputs": [],
      "name": "withdraw",
      "outputs": [],
      "payable": false,
      "stateMutability": "nonpayable",
      "type": "function"
    },
    {
      "constant": true,
      "inputs": [
        {
          "name": "",
          "type": "address"
        }
      ],
      "name": "ethBalances",
      "outputs": [
        {
          "name": "",
          "type": "uint256"
        }
      ],
      "payable": false,
      "stateMutability": "view",
      "type": "function"
    },
    {
      "constant": true,
      "inputs": [
        {
          "name": "",
          "type": "address"
        },
        {
          "name": "",
          "type": "address"
        }
      ],
      "name": "tokenBalances",
      "outputs": [
        {
          "name": "",
          "type": "uint256"
        }
      ],
      "payable": false,
      "stateMutability": "view",
      "type": "function"
    },
    {
      "constant": true,
      "inputs": [
        {
          "name": "_user",
          "type": "address"
        }
      ],
      "name": "balanceOf",
      "outputs": [
        {
          "name": "",
          "type": "uint256"
        }
      ],
      "payable": false,
      "stateMutability": "view",
      "type": "function"
    },
    {
      "constant": false,
      "inputs": [
        {
          "name": "_token",
          "type": "address"
        }
      ],
      "name": "withdrawToken",
      "outputs": [],
      "payable": false,
      "stateMutability": "nonpayable",
      "type": "function"
    },
    {
      "constant": false,
      "inputs": [],
      "name": "deposit",
      "outputs": [],
      "payable": true,
      "stateMutability": "payable",
      "type": "function"
    },
    {
      "constant": true,
      "inputs": [
        {
          "name": "_token",
          "type": "address"
        },
        {
          "name": "_user",
          "type": "address"
        }
      ],
      "name": "balanceOfToken",
      "outputs": [
        {
          "name": "",
          "type": "uint256"
        }
      ],
      "payable": false,
      "stateMutability": "view",
      "type": "function"
    },
    {
      "inputs": [
        {
          "name": "_sv",
          "type": "address"
        },
        {
          "name": "_we",
          "type": "address"
        },
        {
          "name": "_btct",
          "type": "address"
        }
      ],
      "payable": false,
      "stateMutability": "nonpayable",
      "type": "constructor"
    },
    {
      "payable": true,
      "stateMutability": "payable",
      "type": "fallback"
    },
    {
      "anonymous": false,
      "inputs": [
        {
          "indexed": false,
          "name": "_reqHash",
          "type": "bytes32"
        },
        {
          "indexed": false,
          "name": "_redeemScript",
          "type": "bytes"
        }
      ],
      "name": "Submitted",
      "type": "event"
    },
    {
      "anonymous": false,
      "inputs": [
        {
          "indexed": false,
          "name": "_reqHash",
          "type": "bytes32"
        },
        {
          "indexed": false,
          "name": "_txId",
          "type": "bytes32"
        }
      ],
      "name": "ConfirmedByProcessor",
      "type": "event"
    },
    {
      "anonymous": false,
      "inputs": [
        {
          "indexed": false,
          "name": "_token",
          "type": "address"
        },
        {
          "indexed": false,
          "name": "_from",
          "type": "address"
        },
        {
          "indexed": false,
          "name": "_value",
          "type": "uint256"
        }
      ],
      "name": "DepositedToken",
      "type": "event"
    },
    {
      "anonymous": false,
      "inputs": [
        {
          "indexed": false,
          "name": "_token",
          "type": "address"
        },
        {
          "indexed": false,
          "name": "_to",
          "type": "address"
        },
        {
          "indexed": false,
          "name": "_value",
          "type": "uint256"
        }
      ],
      "name": "WithdrewToken",
      "type": "event"
    },
    {
      "anonymous": false,
      "inputs": [
        {
          "indexed": false,
          "name": "_from",
          "type": "address"
        },
        {
          "indexed": false,
          "name": "_value",
          "type": "uint256"
        }
      ],
      "name": "Deposited",
      "type": "event"
    },
    {
      "anonymous": false,
      "inputs": [
        {
          "indexed": false,
          "name": "_to",
          "type": "address"
        },
        {
          "indexed": false,
          "name": "_value",
          "type": "uint256"
        }
      ],
      "name": "Withdrew",
      "type": "event"
    },
    {
      "constant": false,
      "inputs": [
        {
          "name": "_amountOfSat",
          "type": "uint256"
        },
        {
          "name": "_redeemScript",
          "type": "bytes"
        }
      ],
      "name": "submitReq",
      "outputs": [
        {
          "name": "",
          "type": "bool"
        }
      ],
      "payable": false,
      "stateMutability": "nonpayable",
      "type": "function"
    },
    {
      "constant": false,
      "inputs": [
        {
          "name": "_reqHash",
          "type": "bytes32"
        },
        {
          "name": "_txId",
          "type": "bytes32"
        }
      ],
      "name": "confirmByProcessor",
      "outputs": [],
      "payable": false,
      "stateMutability": "nonpayable",
      "type": "function"
    },
    {
      "constant": false,
      "inputs": [
        {
          "name": "_reqHash",
          "type": "bytes32"
        },
        {
          "name": "_rawTx",
          "type": "bytes"
        }
      ],
      "name": "confirmByWitness",
      "outputs": [],
      "payable": false,
      "stateMutability": "nonpayable",
      "type": "function"
    },
    {
      "constant": false,
      "inputs": [
        {
          "name": "_reqHash",
          "type": "bytes32"
        },
        {
          "name": "_secret",
          "type": "bytes"
        }
      ],
      "name": "execute",
      "outputs": [],
      "payable": false,
      "stateMutability": "nonpayable",
      "type": "function"
    }
  ],
  "bytecode": "0x608060405234801561001057600080fd5b50604051606080610fc0833981016040908152815160208301519190920151600c8054600160a060020a0319908116600160a060020a0395861617909155600d8054821693851693909317909255600e80549092169216919091179055610f448061007c6000396000f3006080604052600436106100b95763ffffffff7c010000000000000000000000000000000000000000000000000000000060003504166325cc4b3881146100cc5780632f8d2695146100e7578063338b5dea146101455780633ccfd60b146101695780633cfba0e31461017e5780634dbf6c5a146101b157806370a08231146101d857806389476069146101f9578063bc940eb51461021a578063d0e30db01461028c578063e9ae5c5314610294578063f59e38b7146102f2575b60003411156100ca576100ca610319565b005b3480156100d857600080fd5b506100ca60043560243561036a565b3480156100f357600080fd5b5060408051602060046024803582810135601f81018590048502860185019096528585526100ca9583359536956044949193909101919081908401838280828437509497506104159650505050505050565b34801561015157600080fd5b506100ca600160a060020a036004351660243561065d565b34801561017557600080fd5b506100ca610768565b34801561018a57600080fd5b5061019f600160a060020a03600435166107e8565b60408051918252519081900360200190f35b3480156101bd57600080fd5b5061019f600160a060020a03600435811690602435166107fa565b3480156101e457600080fd5b5061019f600160a060020a0360043516610817565b34801561020557600080fd5b506100ca600160a060020a0360043516610832565b34801561022657600080fd5b5060408051602060046024803582810135601f81018590048502860185019096528585526102789583359536956044949193909101919081908401838280828437509497506109429650505050505050565b604080519115158252519081900360200190f35b6100ca610319565b3480156102a057600080fd5b5060408051602060046024803582810135601f81018590048502860185019096528585526100ca958335953695604494919390910191908190840183828082843750949750610cbd9650505050505050565b3480156102fe57600080fd5b5061019f600160a060020a0360043581169060243516610db2565b336000818152602081815260409182902080543490810190915582519384529083015280517f2da466a7b24304f47e87fa2e1e5a81b9831ce54fec19055ce277ca2f39ba42c49281900390910190a1565b6000828152600560205260409020541561038357600080fd5b60008281526004602052604090205460ff1615156103a057600080fd5b60008281526005602090815260408083208490556009825291829020805473ffffffffffffffffffffffffffffffffffffffff191633179055815184815290810183905281517f6a9c2031d513b9d5258bae261c0beea56eaac60b333e42355f3ec80ea4c82881929181900390910190a15050565b60008281526005602052604081205481908190151561043357600080fd5b60008581526004602052604090205460ff16151561045057600080fd5b600d54604080517ffa7643f40000000000000000000000000000000000000000000000000000000081523360048201529051600160a060020a039092169163fa7643f4916024808201926020929091908290030181600087803b1580156104b657600080fd5b505af11580156104ca573d6000803e3d6000fd5b505050506040513d60208110156104e057600080fd5b505115156104ed57600080fd5b50505060008281526002602090815260408083205460058352818420546006845282852054600c5493517fc723ae8c000000000000000000000000000000000000000000000000000000008152602481018390526bffffffffffffffffffffffff196c010000000000000000000000009092029182166044820152606481018490526084810187905260a060048201908152885160a48301528851949793969295600160a060020a03169463c723ae8c948a94899489948c949092839260c4019190890190808383885b838110156105cf5781810151838201526020016105b7565b50505050905090810190601f1680156105fc5780820380516001836020036101000a031916815260200191505b509650505050505050602060405180830381600087803b15801561061f57600080fd5b505af1158015610633573d6000803e3d6000fd5b505050506040513d602081101561064957600080fd5b5051151561065657600080fd5b5050505050565b604080517f23b872dd0000000000000000000000000000000000000000000000000000000081523360048201523060248201526044810183905290518391600160a060020a038316916323b872dd916064808201926020929091908290030181600087803b1580156106ce57600080fd5b505af11580156106e2573d6000803e3d6000fd5b505050506040513d60208110156106f857600080fd5b5050600160a060020a03831660008181526001602090815260408083203380855290835292819020805487019055805193845290830191909152818101849052517f7a43fc511e5571803e978d5d53bbfb35b899d0c8acdc2039769bfbc77082fa339181900360600190a1505050565b33600081815260208190526040808220805490839055905190929183156108fc02918491818181858888f193505050501580156107a9573d6000803e3d6000fd5b50604080513381526020810183905281517fb244b9a17ad633c6e83b7983ee04320484956a68ddbe96a0b70dfca1cf19d723929181900390910190a150565b60006020819052908152604090205481565b600160209081526000928352604080842090915290825290205481565b600160a060020a031660009081526020819052604090205490565b600160a060020a03811660008181526001602090815260408083203380855290835281842080549085905582517fa9059cbb000000000000000000000000000000000000000000000000000000008152600481019290925260248201819052915186959294929363a9059cbb936044808501949293928390030190829087803b1580156108be57600080fd5b505af11580156108d2573d6000803e3d6000fd5b505050506040513d60208110156108e857600080fd5b505115156108f557600080fd5b60408051600160a060020a038516815233602082015280820183905290517f56e93dc9a8ed3ca4fa5e0477c0ddff18d1c15bf42effb39e071a8868276834329181900360600190a1505050565b600080600080600286866040516020018083815260200182805190602001908083835b602083106109845780518252601f199092019160209182019101610965565b6001836020036101000a038019825116818451168082178552505050505050905001925050506040516020818303038152906040526040518082805190602001908083835b602083106109e85780518252601f1990920191602091820191016109c9565b51815160209384036101000a600019018019909216911617905260405191909301945091925050808303816000865af1158015610a29573d6000803e3d6000fd5b5050506040513d6020811015610a3e57600080fd5b505160008181526004602052604090205490935060ff1615610a5f57600080fd5b6000838152600260209081526040808320899055600382529091208651610a8892880190610e7d565b506000838152600460208181526040808420805460ff1916600117905560088252808420805473ffffffffffffffffffffffffffffffffffffffff191633179055600c5490517fc8de6dd9000000000000000000000000000000000000000000000000000000008152928301828152895160248501528951600160a060020a03929092169463c8de6dd9948b9492938493604490920192918601918190849084905b83811015610b42578181015183820152602001610b2a565b50505050905090810190601f168015610b6f5780820380516001836020036101000a031916815260200191505b50925050506040805180830381600087803b158015610b8d57600080fd5b505af1158015610ba1573d6000803e3d6000fd5b505050506040513d6040811015610bb757600080fd5b5080516020918201516000868152600684526040808220805473ffffffffffffffffffffffffffffffffffffffff19166c010000000000000000000000008604179055600a85528082203490556007855280822083905580518881528086018281528b51928201929092528a519497509295507f2daf40bb937325fd492473a3d4e6e024d6f3a6149bdc591b5a646b71a355a5089488948b94936060850192860191908190849084905b83811015610c79578181015183820152602001610c61565b50505050905090810190601f168015610ca65780820380516001836020036101000a031916815260200191505b50935050505060405180910390a150505092915050565b6000806002836040518082805190602001908083835b60208310610cf25780518252601f199092019160209182019101610cd3565b51815160209384036101000a600019018019909216911617905260405191909301945091925050808303816000865af1158015610d33573d6000803e3d6000fd5b5050506040513d6020811015610d4857600080fd5b505160008581526007602052604090205414610d6357600080fd5b5050600082815260086020908152604080832054600290925290912054600160a060020a0390911690610d968282610ddd565b600e54610dac90600160a060020a031683610e36565b50505050565b600160a060020a03918216600090815260016020908152604080832093909416825291909152205490565b600e548190610df590600160a060020a031684610db2565b1015610e0057600080fd5b600e54600160a060020a039081166000908152600160209081526040808320959093168252939093529091208054919091039055565b600160a060020a039182166000818152600b602090815260408083209490951680835293815284822054928252600181528482209382529290925291902080549091019055565b828054600181600116156101000203166002900490600052602060002090601f016020900481019282601f10610ebe57805160ff1916838001178555610eeb565b82800160010185558215610eeb579182015b82811115610eeb578251825591602001919060010190610ed0565b50610ef7929150610efb565b5090565b610f1591905b80821115610ef75760008155600101610f01565b905600a165627a7a72305820ae8d98c2508c8dc384dc11ff091cae36f017255c17067f0131ee21e94cda9cc90029",
  "source": "pragma solidity 0.4.24;\n\nimport \"./ScriptVerification.sol\";\nimport \"./FundManager.sol\";\nimport \"./WitnessEngine.sol\";\n\n\ncontract Burner is FundManager {\n\n    mapping (bytes32 => uint) private amountOfSats;\n    mapping (bytes32 => bytes) private redeemScripts;\n    mapping (bytes32 => bool) private isUsed;\n    mapping (bytes32 => bytes32) private txIds;\n    mapping (bytes32 => bytes20) private rsHashes;\n    mapping (bytes32 => bytes32) private secretHashes;\n    mapping (bytes32 => address) private orderToAddress;\n    mapping (bytes32 => address) private processers;\n    mapping (bytes32 => uint) private amounts;\n    mapping (address => mapping(address => uint256)) private tokenLockedBalances;\n\n    ScriptVerification private sv;\n\n    WitnessEngine private we;\n\n    EIP20Interface private btct;\n\n    event Submitted(bytes32 _reqHash, bytes _redeemScript);\n    event ConfirmedByProcessor(bytes32 _reqHash, bytes32 _txId);\n\n    constructor(address _sv, address _we, address _btct) public { \n        sv = ScriptVerification(_sv);\n        we = WitnessEngine(_we);\n        btct = EIP20Interface(_btct);\n    }\n\n    function submitReq(uint _amountOfSat, bytes _redeemScript) public returns(bool) {\n        \n        bytes32 reqHash = sha256(abi.encodePacked(_amountOfSat, _redeemScript));\n        bytes20 rsHash;\n        bytes32 secretHash;\n\n        require(!isUsed[reqHash]);\n\n        amountOfSats[reqHash] = _amountOfSat;\n        redeemScripts[reqHash] = _redeemScript;\n        isUsed[reqHash] = true;\n        orderToAddress[reqHash] = msg.sender;\n\n        (rsHash, secretHash) = sv.redeemScriptToSecretHash(_redeemScript);\n\n        rsHashes[reqHash] = rsHash;\n        amounts[reqHash] = msg.value;\n        secretHashes[reqHash] = secretHash;\n\n        emit Submitted(reqHash, _redeemScript);\n\n    }\n\n    function confirmByProcessor(bytes32 _reqHash, bytes32 _txId) public {\n\n        require(txIds[_reqHash] == 0x0);\n\n        require(isUsed[_reqHash]);\n\n        txIds[_reqHash] = _txId;\n\n        processers[_reqHash] = msg.sender;\n\n        emit ConfirmedByProcessor(_reqHash, _txId);\n\n    }\n\n    /**\n     *  bytes _rawTx, \n        bytes32 _txId, \n        bytes20 _beneficially, \n        uint _amount, \n        uint _fee\n     */\n    function confirmByWitness(bytes32 _reqHash, bytes _rawTx) public {\n\n        require(txIds[_reqHash] != 0x0);\n\n        require(isUsed[_reqHash]);\n\n        require(we.isWitness(msg.sender));\n\n        uint amountOfSat = amountOfSats[_reqHash];\n\n        bytes32 txId = txIds[_reqHash];\n\n        bytes20 beneficially = rsHashes[_reqHash];\n\n        require(sv.verifyTx(_rawTx, txId, beneficially, amountOfSat, 0));\n\n    }\n\n    function execute(bytes32 _reqHash, bytes _secret) public {\n\n        require(secretHashes[_reqHash] == sha256(_secret));\n\n        address user = orderToAddress[_reqHash];\n\n        uint amountOfSat = amountOfSats[_reqHash];\n\n        burnBTCT(user, amountOfSat);\n\n        unlockSecurityDeposit(btct, user);\n    }\n\n    function burnBTCT(address _user, uint _amountOfSat) internal {\n\n        require(balanceOfToken(btct, _user) >= _amountOfSat);\n        \n        tokenBalances[btct][_user] -= _amountOfSat;   \n\n        //btct.burn(_amountOfSat);\n    }\n\n    function unlockSecurityDeposit(address token, address _user) internal {\n        \n        uint lockedAmount = tokenLockedBalances[token][_user];\n\n        tokenBalances[token][_user] += lockedAmount;\n    }\n}\n",
  "sourcePath": "/Users/sengayusaku/repo/Swingby/contract/contracts/Burner.sol",
  "compiler": {
    "name": "solc",
    "version": "0.4.24+commit.e67f0147.Emscripten.clang"
  },
  "schemaVersion": "2.0.1",
  "updatedAt": "2018-08-15T02:55:54.221Z"
}