{
  "contractName": "Burner",
  "abi": [
    {
      "constant": false,
      "inputs": [
        {
          "name": "_token",
          "type": "address"
        },
        {
          "name": "_value",
          "type": "uint256"
        }
      ],
      "name": "depositToken",
      "outputs": [],
      "payable": false,
      "stateMutability": "nonpayable",
      "type": "function"
    },
    {
      "constant": false,
      "inputs": [],
      "name": "withdraw",
      "outputs": [],
      "payable": false,
      "stateMutability": "nonpayable",
      "type": "function"
    },
    {
      "constant": true,
      "inputs": [
        {
          "name": "",
          "type": "address"
        }
      ],
      "name": "ethBalances",
      "outputs": [
        {
          "name": "",
          "type": "uint256"
        }
      ],
      "payable": false,
      "stateMutability": "view",
      "type": "function"
    },
    {
      "constant": true,
      "inputs": [
        {
          "name": "",
          "type": "address"
        },
        {
          "name": "",
          "type": "address"
        }
      ],
      "name": "tokenBalances",
      "outputs": [
        {
          "name": "",
          "type": "uint256"
        }
      ],
      "payable": false,
      "stateMutability": "view",
      "type": "function"
    },
    {
      "constant": true,
      "inputs": [
        {
          "name": "_user",
          "type": "address"
        }
      ],
      "name": "balanceOf",
      "outputs": [
        {
          "name": "",
          "type": "uint256"
        }
      ],
      "payable": false,
      "stateMutability": "view",
      "type": "function"
    },
    {
      "constant": false,
      "inputs": [
        {
          "name": "_token",
          "type": "address"
        }
      ],
      "name": "withdrawToken",
      "outputs": [],
      "payable": false,
      "stateMutability": "nonpayable",
      "type": "function"
    },
    {
      "constant": false,
      "inputs": [],
      "name": "deposit",
      "outputs": [],
      "payable": true,
      "stateMutability": "payable",
      "type": "function"
    },
    {
      "constant": true,
      "inputs": [
        {
          "name": "_token",
          "type": "address"
        },
        {
          "name": "_user",
          "type": "address"
        }
      ],
      "name": "balanceOfToken",
      "outputs": [
        {
          "name": "",
          "type": "uint256"
        }
      ],
      "payable": false,
      "stateMutability": "view",
      "type": "function"
    },
    {
      "inputs": [
        {
          "name": "_sv",
          "type": "address"
        },
        {
          "name": "_we",
          "type": "address"
        },
        {
          "name": "_gen",
          "type": "address"
        }
      ],
      "payable": false,
      "stateMutability": "nonpayable",
      "type": "constructor"
    },
    {
      "payable": true,
      "stateMutability": "payable",
      "type": "fallback"
    },
    {
      "anonymous": false,
      "inputs": [
        {
          "indexed": false,
          "name": "_reqHash",
          "type": "bytes32"
        },
        {
          "indexed": false,
          "name": "_redeemScript",
          "type": "bytes"
        }
      ],
      "name": "Submitted",
      "type": "event"
    },
    {
      "anonymous": false,
      "inputs": [
        {
          "indexed": false,
          "name": "_reqHash",
          "type": "bytes32"
        },
        {
          "indexed": false,
          "name": "_txId",
          "type": "bytes32"
        }
      ],
      "name": "ConfirmedByProcessor",
      "type": "event"
    },
    {
      "anonymous": false,
      "inputs": [
        {
          "indexed": false,
          "name": "_token",
          "type": "address"
        },
        {
          "indexed": false,
          "name": "_from",
          "type": "address"
        },
        {
          "indexed": false,
          "name": "_value",
          "type": "uint256"
        }
      ],
      "name": "DepositedToken",
      "type": "event"
    },
    {
      "anonymous": false,
      "inputs": [
        {
          "indexed": false,
          "name": "_token",
          "type": "address"
        },
        {
          "indexed": false,
          "name": "_to",
          "type": "address"
        },
        {
          "indexed": false,
          "name": "_value",
          "type": "uint256"
        }
      ],
      "name": "WithdrewToken",
      "type": "event"
    },
    {
      "anonymous": false,
      "inputs": [
        {
          "indexed": false,
          "name": "_from",
          "type": "address"
        },
        {
          "indexed": false,
          "name": "_value",
          "type": "uint256"
        }
      ],
      "name": "Deposited",
      "type": "event"
    },
    {
      "anonymous": false,
      "inputs": [
        {
          "indexed": false,
          "name": "_to",
          "type": "address"
        },
        {
          "indexed": false,
          "name": "_value",
          "type": "uint256"
        }
      ],
      "name": "Withdrew",
      "type": "event"
    },
    {
      "constant": false,
      "inputs": [
        {
          "name": "_aOfSat",
          "type": "uint256"
        },
        {
          "name": "_aOfWei",
          "type": "uint256"
        },
        {
          "name": "_isMinter",
          "type": "bool"
        },
        {
          "name": "_pubkey",
          "type": "bytes"
        }
      ],
      "name": "submitReq",
      "outputs": [],
      "payable": false,
      "stateMutability": "nonpayable",
      "type": "function"
    },
    {
      "constant": false,
      "inputs": [
        {
          "name": "_reqId",
          "type": "uint256"
        },
        {
          "name": "_txId",
          "type": "bytes32"
        },
        {
          "name": "_rs",
          "type": "bytes"
        }
      ],
      "name": "confirmByProvider",
      "outputs": [],
      "payable": false,
      "stateMutability": "nonpayable",
      "type": "function"
    },
    {
      "constant": false,
      "inputs": [
        {
          "name": "_reqId",
          "type": "uint256"
        },
        {
          "name": "_rawTx",
          "type": "bytes"
        }
      ],
      "name": "confirmByWitness",
      "outputs": [],
      "payable": false,
      "stateMutability": "nonpayable",
      "type": "function"
    },
    {
      "constant": false,
      "inputs": [
        {
          "name": "_reqId",
          "type": "uint256"
        },
        {
          "name": "_orderId",
          "type": "uint256"
        }
      ],
      "name": "attach",
      "outputs": [],
      "payable": false,
      "stateMutability": "nonpayable",
      "type": "function"
    },
    {
      "constant": false,
      "inputs": [
        {
          "name": "_reqId",
          "type": "uint256"
        },
        {
          "name": "_secret",
          "type": "bytes"
        }
      ],
      "name": "execute",
      "outputs": [],
      "payable": false,
      "stateMutability": "nonpayable",
      "type": "function"
    },
    {
      "constant": false,
      "inputs": [
        {
          "name": "_reqId",
          "type": "uint256"
        }
      ],
      "name": "liquidate",
      "outputs": [],
      "payable": false,
      "stateMutability": "nonpayable",
      "type": "function"
    },
    {
      "constant": true,
      "inputs": [],
      "name": "getPrice",
      "outputs": [
        {
          "name": "",
          "type": "uint256"
        }
      ],
      "payable": false,
      "stateMutability": "pure",
      "type": "function"
    }
  ],
  "bytecode": "0x608060405234801561001057600080fd5b506040516060806113f983398101604081815282516020808501519483015160068054600160a060020a03808616600160a060020a03199283161790925560078054838a1690831617905560098054838516921691909117908190557f337eef8900000000000000000000000000000000000000000000000000000000875294519396959194169263337eef89926004808401939192918290030181600087803b1580156100bd57600080fd5b505af11580156100d1573d6000803e3d6000fd5b505050506040513d60208110156100e757600080fd5b505160088054600160a060020a03909216600160a060020a03199092169190911790555050506112dd8061011c6000396000f3006080604052600436106100da5763ffffffff7c01000000000000000000000000000000000000000000000000000000006000350416630d9ed9a681146100ed578063338b5dea1461014d5780633ccfd60b146101715780633cfba0e314610186578063415f1240146101b95780634bd2a954146101d15780634dbf6c5a1461022f57806359efcb151461025657806370a08231146102b4578063871653eb146102d5578063894760691461033a57806398d5fdca1461035b578063c55e0ec514610370578063d0e30db01461038b578063f59e38b714610393575b60003411156100eb576100eb6103ba565b005b3480156100f957600080fd5b50604080516020600460443581810135601f81018490048402850184019095528484526100eb94823594602480359536959460649492019190819084018382808284375094975061040b9650505050505050565b34801561015957600080fd5b506100eb600160a060020a03600435166024356105bb565b34801561017d57600080fd5b506100eb6106c6565b34801561019257600080fd5b506101a7600160a060020a0360043516610746565b60408051918252519081900360200190f35b3480156101c557600080fd5b506100eb600435610758565b3480156101dd57600080fd5b5060408051602060046024803582810135601f81018590048502860185019096528585526100eb9583359536956044949193909101919081908401838280828437509497506107b79650505050505050565b34801561023b57600080fd5b506101a7600160a060020a03600435811690602435166109f7565b34801561026257600080fd5b5060408051602060046024803582810135601f81018590048502860185019096528585526100eb958335953695604494919390910191908190840183828082843750949750610a149650505050505050565b3480156102c057600080fd5b506101a7600160a060020a0360043516610b0a565b3480156102e157600080fd5b50604080516020601f6064356004818101359283018490048402850184019095528184526100eb94803594602480359560443515159536956084949301918190840183828082843750949750610b259650505050505050565b34801561034657600080fd5b506100eb600160a060020a0360043516610d46565b34801561036757600080fd5b506101a7610e56565b34801561037c57600080fd5b506100eb600435602435610e5d565b6100eb6103ba565b34801561039f57600080fd5b506101a7600160a060020a036004358116906024351661102f565b336000818152602081815260409182902080543490810190915582519384529083015280517f2da466a7b24304f47e87fa2e1e5a81b9831ce54fec19055ce277ca2f39ba42c49281900390910190a1565b600080600060058681548110151561041f57fe5b600091825260208083206006546040517fc8de6dd9000000000000000000000000000000000000000000000000000000008152600481018481528a5160248301528a51600a9096029093019850600160a060020a039091169463c8de6dd9948a9484936044019290860191908190849084905b838110156104aa578181015183820152602001610492565b50505050905090810190601f1680156104d75780820380516001836020036101000a031916815260200191505b50925050506040805180830381600087803b1580156104f557600080fd5b505af1158015610509573d6000803e3d6000fd5b505050506040513d604081101561051f57600080fd5b5080516020918201516003860180546c01000000000000000000000000840473ffffffffffffffffffffffffffffffffffffffff19918216179091556004870182905560058701899055600787018054909116331790556040805182815293840189905280519295509093507f6a9c2031d513b9d5258bae261c0beea56eaac60b333e42355f3ec80ea4c82881928290030190a1505050505050565b604080517f23b872dd0000000000000000000000000000000000000000000000000000000081523360048201523060248201526044810183905290518391600160a060020a038316916323b872dd916064808201926020929091908290030181600087803b15801561062c57600080fd5b505af1158015610640573d6000803e3d6000fd5b505050506040513d602081101561065657600080fd5b5050600160a060020a03831660008181526001602090815260408083203380855290835292819020805487019055805193845290830191909152818101849052517f7a43fc511e5571803e978d5d53bbfb35b899d0c8acdc2039769bfbc77082fa339181900360600190a1505050565b33600081815260208190526040808220805490839055905190929183156108fc02918491818181858888f19350505050158015610707573d6000803e3d6000fd5b50604080513381526020810183905281517fb244b9a17ad633c6e83b7983ee04320484956a68ddbe96a0b70dfca1cf19d723929181900390910190a150565b60006020819052908152604090205481565b600060058281548110151561076957fe5b90600052602060002090600a020190508060070160149054906101000a900460ff16151561079657600080fd5b6008810154621275004201116107b35760098101805460ff191690555b5050565b60006005838154811015156107c857fe5b60009182526020909120600a909102016007810154909150600160a060020a031615156107f457600080fd5b60088101541561080357600080fd5b600754604080517ffa7643f40000000000000000000000000000000000000000000000000000000081523360048201529051600160a060020a039092169163fa7643f4916024808201926020929091908290030181600087803b15801561086957600080fd5b505af115801561087d573d6000803e3d6000fd5b505050506040513d602081101561089357600080fd5b505115156108a057600080fd5b6006546005820154600383015483546040517fc723ae8c000000000000000000000000000000000000000000000000000000008152602481018490526c010000000000000000000000009092026bffffffffffffffffffffffff19811660448401526064830182905260006084840181905260a060048501908152885160a48601528851600160a060020a039097169663c723ae8c968a969095939291829160c401906020890190808383885b8381101561096557818101518382015260200161094d565b50505050905090810190601f1680156109925780820380516001836020036101000a031916815260200191505b509650505050505050602060405180830381600087803b1580156109b557600080fd5b505af11580156109c9573d6000803e3d6000fd5b505050506040513d60208110156109df57600080fd5b505115156109ec57600080fd5b426008909101555050565b600160209081526000928352604080842090915290825290205481565b6000600583815481101515610a2557fe5b90600052602060002090600a020190506002826040518082805190602001908083835b60208310610a675780518252601f199092019160209182019101610a48565b51815160209384036101000a600019018019909216911617905260405191909301945091925050808303816000865af1158015610aa8573d6000803e3d6000fd5b5050506040513d6020811015610abd57600080fd5b5051600482015414610ace57600080fd5b60068101548154610ae891600160a060020a03169061105a565b60068101546002820154610b0591600160a060020a031690611120565b505050565b600160a060020a031660009081526020819052604090205490565b6000610b2f6111bc565b8315610b4957610b3d610e56565b86608202029150610b59565b610b51610e56565b86600d020291505b81610b6333610b0a565b1015610b6e57600080fd5b81851015610b7b57600080fd5b610b853386611176565b50604080516101608101825286815260208082018581529282018790526000606083018190526080830181905260a083018190523360c084015260e0830181905286151561010084015261012083018190526001610140840181905260058054918201808255925283517f036b6384b5eca791c62761152d0c79bb0604c104a5fb6f4eb0703f3154bb3db0600a90920291820190815594518051949592948694610c53937f036b6384b5eca791c62761152d0c79bb0604c104a5fb6f4eb0703f3154bb3db101920190611219565b506040820151600282015560608201516003820180546c0100000000000000000000000090920473ffffffffffffffffffffffffffffffffffffffff199283161790556080830151600483015560a0830151600583015560c0830151600683018054600160a060020a0392831690841617905560e08401516007840180546101008701511515740100000000000000000000000000000000000000000274ff00000000000000000000000000000000000000001993909416941693909317161790556101208201516008820155610140909101516009909101805491151560ff1990921691909117905550505050505050565b600160a060020a03811660008181526001602090815260408083203380855290835281842080549085905582517fa9059cbb000000000000000000000000000000000000000000000000000000008152600481019290925260248201819052915186959294929363a9059cbb936044808501949293928390030190829087803b158015610dd257600080fd5b505af1158015610de6573d6000803e3d6000fd5b505050506040513d6020811015610dfc57600080fd5b50511515610e0957600080fd5b60408051600160a060020a038516815233602082015280820183905290517f56e93dc9a8ed3ca4fa5e0477c0ddff18d1c15bf42effb39e071a8868276834329181900360600190a1505050565b6156ce5b90565b6000806000600585815481101515610e7157fe5b600091825260208083208784526003909152604090922054600a909102909101935060ff1615610ea057600080fd5b600954604080517f85fdc2f7000000000000000000000000000000000000000000000000000000008152600481018790528151600160a060020a03909316926385fdc2f7926024808401939192918290030181600087803b158015610f0457600080fd5b505af1158015610f18573d6000803e3d6000fd5b505050506040513d6040811015610f2e57600080fd5b5080516020909101516007850154909350909150600160a060020a038084169116148015610f785750600783015474010000000000000000000000000000000000000000900460ff165b1561102857600160a060020a03808316600090815260046020819052604080832080548601905560095481517fe102f4c4000000000000000000000000000000000000000000000000000000008152928301899052905193169263e102f4c49260248084019391929182900301818387803b158015610ff657600080fd5b505af115801561100a573d6000803e3d6000fd5b5050506000858152600360205260409020805460ff19166001179055505b5050505050565b600160a060020a03918216600090815260016020908152604080832093909416825291909152205490565b600854819061107290600160a060020a03168461102f565b101561107d57600080fd5b60088054600160a060020a039081166000908152600160209081526040808320878516845290915280822080548690039055925483517f42966c680000000000000000000000000000000000000000000000000000000081526004810186905293519216926342966c68926024808301939282900301818387803b15801561110457600080fd5b505af1158015611118573d6000803e3d6000fd5b505050505050565b600160a060020a03821660009081526002602052604090205481111561114557600080fd5b600160a060020a03909116600090815260208181526040808320805485019055600290915290208054919091039055565b8061118083610b0a565b101561118b57600080fd5b600160a060020a03909116600090815260208181526040808320805485900390556002909152902080549091019055565b604080516101608101825260008082526060602083018190529282018190529181018290526080810182905260a0810182905260c0810182905260e081018290526101008101829052610120810182905261014081019190915290565b828054600181600116156101000203166002900490600052602060002090601f016020900481019282601f1061125a57805160ff1916838001178555611287565b82800160010185558215611287579182015b8281111561128757825182559160200191906001019061126c565b50611293929150611297565b5090565b610e5a91905b80821115611293576000815560010161129d5600a165627a7a723058206bab151b611a5fdd91b9b7dce6c87a86fde99e95920455639e9285d290332fd40029",
  "source": "pragma solidity 0.4.24;\n\nimport \"./ScriptVerification.sol\";\nimport \"./FundManager.sol\";\nimport \"./WitnessEngine.sol\";\nimport \"./GeneratorInterface.sol\";\n\n\ncontract Burner is FundManager {\n\n    mapping (address => uint256) private lockedBalances;\n    mapping (uint => bool) private isUsed;\n    mapping (address => uint) private debts;\n\n    struct Req {\n        uint    aOfSat;\n        bytes   pubkey;\n        uint    lockingAmount;\n        bytes20 rsHash;\n        bytes32 secretHash;\n        bytes32 txId;\n        address submitter;\n        address provider;\n        bool    isMinter;\n        uint    verifiedTime;\n        bool    isOpen;\n    }\n\n    Req[] private reqs;\n\n    ScriptVerification private sv;\n\n    WitnessEngine private we;\n\n    ERC20 private btct;\n\n    GeneratorInterface private gen;\n\n    event Submitted(bytes32 _reqHash, bytes _redeemScript);\n    event ConfirmedByProcessor(bytes32 _reqHash, bytes32 _txId);\n\n    constructor(address _sv, address _we, address _gen) public { \n        sv = ScriptVerification(_sv);\n        we = WitnessEngine(_we);\n        gen = GeneratorInterface(_gen);\n        btct = ERC20(gen.getBTCT());\n    }\n\n    function submitReq(uint _aOfSat, uint _aOfWei, bool _isMinter, bytes _pubkey) public {\n\n        uint256 wethAmount;\n\n        if (_isMinter) {\n            wethAmount = _aOfSat * 130 * getPrice();\n            \n        } else {\n            wethAmount = _aOfSat * 13 * getPrice();\n        }\n\n        require(balanceOf(msg.sender) >= wethAmount);\n\n        require(_aOfWei >= wethAmount);\n\n        lockSecurityDeposit(msg.sender, _aOfWei);\n\n        Req memory req = Req({\n            aOfSat: _aOfSat,\n            pubkey: _pubkey,\n            lockingAmount: _aOfWei,\n            rsHash: 0x0,\n            secretHash: 0x0,\n            txId: 0x0,\n            submitter: msg.sender,\n            provider: 0x0,\n            isMinter: _isMinter,\n            verifiedTime: 0,\n            isOpen: true\n        });\n        reqs.push(req);\n    }\n\n    function confirmByProvider(uint _reqId, bytes32 _txId, bytes _rs) public {\n\n        Req storage req = reqs[_reqId];\n\n        bytes20 rsHash;\n        bytes32 secretHash;\n\n        (rsHash, secretHash) = sv.redeemScriptToSecretHash(_rs);\n\n        req.rsHash = rsHash;\n        req.secretHash = secretHash;\n        req.txId = _txId;\n        req.provider = msg.sender;\n\n        emit ConfirmedByProcessor(secretHash, _txId);\n\n    }\n\n    /**\n     *  bytes _rawTx, \n        bytes32 _txId, \n        bytes20 _beneficially, \n        uint _amount, \n        uint _fee\n     */\n    function confirmByWitness(uint _reqId, bytes _rawTx) public {\n\n        Req storage req = reqs[_reqId];\n\n        require(req.provider != 0x0);\n\n        require(req.verifiedTime == 0);\n\n        require(we.isWitness(msg.sender));\n\n        require(sv.verifyTx(_rawTx, req.txId, req.rsHash, req.aOfSat, 0));\n\n        req.verifiedTime = block.timestamp;\n    }\n\n    function attach(uint _reqId, uint _orderId) {\n\n        Req storage req = reqs[_reqId];\n\n        address minter;\n        uint aOfDebt;\n\n        require(!isUsed[_orderId]);\n        \n        (aOfDebt, minter) = gen.getDeptByOrder(_orderId);\n\n        if (minter == req.provider && req.isMinter) {\n            debts[minter] += aOfDebt;\n            gen.confirmByBurner(_orderId);\n            isUsed[_orderId] = true;\n        }\n    }\n\n    function execute(uint _reqId, bytes _secret) public {\n\n        Req storage req = reqs[_reqId]; \n\n        require(req.secretHash == sha256(_secret));\n\n        burnBTCT(req.submitter, req.aOfSat);\n\n        unlockSecurityDeposit(req.submitter, req.lockingAmount);\n    }\n\n    function liquidate(uint _reqId) public {\n\n        Req storage req = reqs[_reqId];\n\n        require(req.isMinter);\n\n        if (req.verifiedTime >= block.timestamp + 2 weeks) {\n            req.isOpen = false;\n            // liquidate\n        }\n    }\n\n    function getPrice() public pure returns (uint) {\n        return 22222;\n    }\n\n    function burnBTCT(address _user, uint _amountOfSat) internal {\n\n        require(balanceOfToken(btct, _user) >= _amountOfSat);\n        \n        tokenBalances[btct][_user] -= _amountOfSat;   \n\n        btct.burn(_amountOfSat);\n    }\n\n    function lockSecurityDeposit(address _user, uint _amount) internal {\n\n        require(balanceOf(_user) >= _amount);\n\n        ethBalances[_user] -= _amount;\n\n        lockedBalances[_user] += _amount;\n\n    }\n\n    function unlockSecurityDeposit(address _user, uint _amount) internal {\n        \n        require(lockedBalances[_user] >= _amount);\n\n        ethBalances[_user] += _amount;\n\n        lockedBalances[_user] -= _amount;\n    }\n}\n",
  "sourcePath": "/Users/sengayusaku/repo/Swingby/contract/contracts/Burner.sol",
  "compiler": {
    "name": "solc",
    "version": "0.4.24+commit.e67f0147.Emscripten.clang"
  },
  "schemaVersion": "2.0.1",
  "updatedAt": "2018-08-15T11:59:42.214Z"
}