{
  "contractName": "FundManager",
  "abi": [
    {
      "constant": true,
      "inputs": [
        {
          "name": "",
          "type": "address"
        }
      ],
      "name": "ethBalances",
      "outputs": [
        {
          "name": "",
          "type": "uint256"
        }
      ],
      "payable": false,
      "stateMutability": "view",
      "type": "function"
    },
    {
      "constant": true,
      "inputs": [
        {
          "name": "",
          "type": "address"
        },
        {
          "name": "",
          "type": "address"
        }
      ],
      "name": "tokenBalances",
      "outputs": [
        {
          "name": "",
          "type": "uint256"
        }
      ],
      "payable": false,
      "stateMutability": "view",
      "type": "function"
    },
    {
      "payable": true,
      "stateMutability": "payable",
      "type": "fallback"
    },
    {
      "anonymous": false,
      "inputs": [
        {
          "indexed": false,
          "name": "_token",
          "type": "address"
        },
        {
          "indexed": false,
          "name": "_from",
          "type": "address"
        },
        {
          "indexed": false,
          "name": "_value",
          "type": "uint256"
        }
      ],
      "name": "DepositedToken",
      "type": "event"
    },
    {
      "anonymous": false,
      "inputs": [
        {
          "indexed": false,
          "name": "_token",
          "type": "address"
        },
        {
          "indexed": false,
          "name": "_to",
          "type": "address"
        },
        {
          "indexed": false,
          "name": "_value",
          "type": "uint256"
        }
      ],
      "name": "WithdrewToken",
      "type": "event"
    },
    {
      "anonymous": false,
      "inputs": [
        {
          "indexed": false,
          "name": "_from",
          "type": "address"
        },
        {
          "indexed": false,
          "name": "_value",
          "type": "uint256"
        }
      ],
      "name": "Deposited",
      "type": "event"
    },
    {
      "anonymous": false,
      "inputs": [
        {
          "indexed": false,
          "name": "_to",
          "type": "address"
        },
        {
          "indexed": false,
          "name": "_value",
          "type": "uint256"
        }
      ],
      "name": "Withdrew",
      "type": "event"
    },
    {
      "constant": false,
      "inputs": [
        {
          "name": "_token",
          "type": "address"
        },
        {
          "name": "_value",
          "type": "uint256"
        }
      ],
      "name": "depositToken",
      "outputs": [],
      "payable": false,
      "stateMutability": "nonpayable",
      "type": "function"
    },
    {
      "constant": false,
      "inputs": [
        {
          "name": "_token",
          "type": "address"
        }
      ],
      "name": "withdrawToken",
      "outputs": [],
      "payable": false,
      "stateMutability": "nonpayable",
      "type": "function"
    },
    {
      "constant": false,
      "inputs": [],
      "name": "deposit",
      "outputs": [],
      "payable": true,
      "stateMutability": "payable",
      "type": "function"
    },
    {
      "constant": false,
      "inputs": [],
      "name": "withdraw",
      "outputs": [],
      "payable": false,
      "stateMutability": "nonpayable",
      "type": "function"
    },
    {
      "constant": true,
      "inputs": [
        {
          "name": "_token",
          "type": "address"
        },
        {
          "name": "_user",
          "type": "address"
        }
      ],
      "name": "balanceOfToken",
      "outputs": [
        {
          "name": "",
          "type": "uint256"
        }
      ],
      "payable": false,
      "stateMutability": "view",
      "type": "function"
    },
    {
      "constant": true,
      "inputs": [
        {
          "name": "_user",
          "type": "address"
        }
      ],
      "name": "balanceOf",
      "outputs": [
        {
          "name": "",
          "type": "uint256"
        }
      ],
      "payable": false,
      "stateMutability": "view",
      "type": "function"
    }
  ],
  "bytecode": "0x608060405234801561001057600080fd5b50610531806100206000396000f30060806040526004361061008d5763ffffffff7c0100000000000000000000000000000000000000000000000000000000600035041663338b5dea81146100a05780633ccfd60b146100c45780633cfba0e3146100d95780634dbf6c5a1461010c57806370a08231146101335780638947606914610154578063d0e30db014610175578063f59e38b71461017d575b600034111561009e5761009e6101a4565b005b3480156100ac57600080fd5b5061009e600160a060020a03600435166024356101f5565b3480156100d057600080fd5b5061009e610300565b3480156100e557600080fd5b506100fa600160a060020a0360043516610380565b60408051918252519081900360200190f35b34801561011857600080fd5b506100fa600160a060020a0360043581169060243516610392565b34801561013f57600080fd5b506100fa600160a060020a03600435166103af565b34801561016057600080fd5b5061009e600160a060020a03600435166103ca565b61009e6101a4565b34801561018957600080fd5b506100fa600160a060020a03600435811690602435166104da565b336000818152602081815260409182902080543490810190915582519384529083015280517f2da466a7b24304f47e87fa2e1e5a81b9831ce54fec19055ce277ca2f39ba42c49281900390910190a1565b604080517f23b872dd0000000000000000000000000000000000000000000000000000000081523360048201523060248201526044810183905290518391600160a060020a038316916323b872dd916064808201926020929091908290030181600087803b15801561026657600080fd5b505af115801561027a573d6000803e3d6000fd5b505050506040513d602081101561029057600080fd5b5050600160a060020a03831660008181526001602090815260408083203380855290835292819020805487019055805193845290830191909152818101849052517f7a43fc511e5571803e978d5d53bbfb35b899d0c8acdc2039769bfbc77082fa339181900360600190a1505050565b33600081815260208190526040808220805490839055905190929183156108fc02918491818181858888f19350505050158015610341573d6000803e3d6000fd5b50604080513381526020810183905281517fb244b9a17ad633c6e83b7983ee04320484956a68ddbe96a0b70dfca1cf19d723929181900390910190a150565b60006020819052908152604090205481565b600160209081526000928352604080842090915290825290205481565b600160a060020a031660009081526020819052604090205490565b600160a060020a03811660008181526001602090815260408083203380855290835281842080549085905582517fa9059cbb000000000000000000000000000000000000000000000000000000008152600481019290925260248201819052915186959294929363a9059cbb936044808501949293928390030190829087803b15801561045657600080fd5b505af115801561046a573d6000803e3d6000fd5b505050506040513d602081101561048057600080fd5b5051151561048d57600080fd5b60408051600160a060020a038516815233602082015280820183905290517f56e93dc9a8ed3ca4fa5e0477c0ddff18d1c15bf42effb39e071a8868276834329181900360600190a1505050565b600160a060020a039182166000908152600160209081526040808320939094168252919091522054905600a165627a7a72305820986888ff03b13e78d42956ed0db0c48efded3def503d160b2d6448a9f80d02010029",
  "source": "pragma solidity 0.4.24;\n\nimport \"./EIP20Interface.sol\";\n\n\ncontract FundManager {\n\n    mapping(address => uint256) public ethBalances;\n\n    mapping(address => mapping(address => uint256)) public tokenBalances;\n\n    event DepositedToken(address _token, address _from, uint256 _value);\n    event WithdrewToken(address _token, address _to, uint256 _value);\n\n    event Deposited(address _from, uint256 _value);\n    event Withdrew(address _to, uint256 _value);\n\n    function () public payable {\n        if (msg.value > 0)\n            deposit();\n    }\n\n    function depositToken(address _token, uint256 _value) public {\n\n        EIP20Interface token = EIP20Interface(_token);\n\n        token.transferFrom(msg.sender, this, _value);   \n\n        tokenBalances[_token][msg.sender] += _value;    \n\n        emit DepositedToken(_token, msg.sender, _value);\n    }\n\n    function withdrawToken(address _token) public {\n        \n        EIP20Interface token = EIP20Interface(_token);\n\n        uint256 value = tokenBalances[_token][msg.sender];\n\n        tokenBalances[_token][msg.sender] = 0;   \n\n        require(token.transfer(msg.sender, value));   \n\n        emit WithdrewToken(_token, msg.sender, value);\n    }\n\n    function deposit() public payable {\n\n        ethBalances[msg.sender] += msg.value;\n\n        emit Deposited(msg.sender, msg.value);\n    }\n\n    function withdraw() public {\n        \n        uint256 value = ethBalances[msg.sender];\n        \n        ethBalances[msg.sender] = 0;\n\n        msg.sender.transfer(value);\n        \n        emit Withdrew(msg.sender, value);\n\n    }\n\n    function balanceOfToken(address _token, address _user) public view returns (uint) {\n        return tokenBalances[_token][_user];\n    }\n\n    function balanceOf(address _user) public view returns (uint) {\n        return ethBalances[_user];\n    }\n\n\n}\n\n",
  "sourcePath": "/Users/sengayusaku/repo/Swingby/contract/contracts/FundManager.sol",
  "compiler": {
    "name": "solc",
    "version": "0.4.24+commit.e67f0147.Emscripten.clang"
  },
  "schemaVersion": "2.0.1",
  "updatedAt": "2018-08-15T02:53:13.991Z"
}