{
  "contractName": "ScriptVerification",
  "abi": [
    {
      "anonymous": false,
      "inputs": [
        {
          "indexed": false,
          "name": "_txId",
          "type": "bytes32"
        },
        {
          "indexed": false,
          "name": "_amount",
          "type": "uint256"
        }
      ],
      "name": "Verified",
      "type": "event"
    },
    {
      "constant": false,
      "inputs": [
        {
          "name": "_rawTx",
          "type": "bytes"
        },
        {
          "name": "_txId",
          "type": "bytes32"
        },
        {
          "name": "_beneficially",
          "type": "bytes20"
        },
        {
          "name": "_amount",
          "type": "uint256"
        },
        {
          "name": "_fee",
          "type": "uint256"
        }
      ],
      "name": "verifyTx",
      "outputs": [
        {
          "name": "",
          "type": "bool"
        }
      ],
      "payable": false,
      "stateMutability": "nonpayable",
      "type": "function"
    },
    {
      "constant": true,
      "inputs": [
        {
          "name": "_redeemScript",
          "type": "bytes"
        }
      ],
      "name": "redeemScriptToSecretHash",
      "outputs": [
        {
          "name": "",
          "type": "bytes20"
        },
        {
          "name": "",
          "type": "bytes32"
        }
      ],
      "payable": false,
      "stateMutability": "pure",
      "type": "function"
    }
  ],
  "bytecode": "0x608060405234801561001057600080fd5b506106b8806100206000396000f30060806040526004361061004b5763ffffffff7c0100000000000000000000000000000000000000000000000000000000600035041663c723ae8c8114610050578063c8de6dd9146100dd575b600080fd5b34801561005c57600080fd5b506040805160206004803580820135601f81018490048402850184019095528484526100c9943694929360249392840191908190840183828082843750949750508435955050505060208201356bffffffffffffffffffffffff191691604081013591506060013561015f565b604080519115158252519081900360200190f35b3480156100e957600080fd5b506040805160206004803580820135601f81018490048402850184019095528484526101369436949293602493928401919081908401838280828437509497506104a39650505050505050565b604080516bffffffffffffffffffffffff19909316835260208301919091528051918290030190f35b6000806000806000806000806102a06002808f6040518082805190602001908083835b602083106101a15780518252601f199092019160209182019101610182565b51815160209384036101000a600019018019909216911617905260405191909301945091925050808303816000865af11580156101e2573d6000803e3d6000fd5b5050506040513d60208110156101f757600080fd5b50516040805160208181019390935281518082038401815290820191829052805190928291908401908083835b602083106102435780518252601f199092019160209182019101610224565b51815160209384036101000a600019018019909216911617905260405191909301945091925050808303816000865af1158015610284573d6000803e3d6000fd5b5050506040513d602081101561029957600080fd5b5051610522565b6001029650600091506000905073__BTCLib________________________________63e0303a2e8e6040518263ffffffff167c01000000000000000000000000000000000000000000000000000000000281526004018080602001828103825283818151815260200191508051906020019080838360005b83811015610330578181015183820152602001610318565b50505050905090810190601f16801561035d5780820380516001836020036101000a031916815260200191505b509250505060806040518083038186803b15801561037a57600080fd5b505af415801561038e573d6000803e3d6000fd5b505050506040513d60808110156103a457600080fd5b50805160208201516040830151606090930151909850965094509250868c146103d05760009750610493565b6bffffffffffffffffffffffff19868116908c16141561040157888a016103f68561054d565b141561040157600191505b6bffffffffffffffffffffffff19858116908c16141561043157888a016104278461054d565b1415610431575060015b8115801561043d575080155b1561044b5760009750610493565b7f6596bcc34353fb146faf7f2037672db801bdf4b3d85604b3368591caea55c2f7876104768661054d565b6040805192835260208301919091528051918290030190a1600197505b5050505050505095945050505050565b60008060008060008060006104b788610557565b9350600a92508290505b826020018110156105145761010082029150875181101561050c5787818151811015156104ea57fe5b90602001015160f860020a900460f860020a0260f860020a900460ff16821791505b6001016104c1565b509196919550909350505050565b600060405160005b6020811015610545578381601f031a8183015360010161052a565b505192915050565b6402540be4000290565b600060036002836040518082805190602001908083835b6020831061058d5780518252601f19909201916020918201910161056e565b51815160209384036101000a600019018019909216911617905260405191909301945091925050808303816000865af11580156105ce573d6000803e3d6000fd5b5050506040513d60208110156105e357600080fd5b50516040805160208181019390935281518082038401815290820191829052805190928291908401908083835b6020831061062f5780518252601f199092019160209182019101610610565b51815160209384036101000a600019018019909216911617905260405191909301945091925050808303816000865af1158015610670573d6000803e3d6000fd5b5050604051516c010000000000000000000000000293925050505600a165627a7a72305820edd9a116411642117da10d6d42e78e6e66daf5f4b40a3dc6b0dbfaddbffeabe90029",
  "source": "pragma solidity 0.4.24;\n\nimport \"./BTCLib.sol\";\n\n\ncontract ScriptVerification {\n\n    event Verified(bytes32 _txId, uint _amount);\n\n    function verifyTx(\n        bytes _rawTx, \n        bytes32 _txId, \n        bytes20 _beneficially, \n        uint _amount, \n        uint _fee\n    ) \n    public returns (bool) \n    {\n    \n        bytes32 txId = bytes32(flip32Bytes(uint(sha256(abi.encodePacked(sha256(_rawTx))))));\n\n        bytes20 outputAddress1;\n        bytes20 outputAddress2;\n        uint    outputAmount1;\n        uint    outputAmount2;\n        bool    firstMatch = false;\n        bool    secondMatch = false;\n\n        (outputAmount1, outputAddress1, outputAmount2, outputAddress2) = BTCLib.getFirstTwoOutputs(_rawTx);\n        \n        if (txId != _txId) {\n            return false;\n        }\n        if (outputAddress1 == _beneficially) {\n            if (satToValue(outputAmount1) == _amount + _fee) {\n                firstMatch = true;\n            }\n        }\n        if (outputAddress2 == _beneficially) {\n            if (satToValue(outputAmount2) == _amount + _fee) {\n                secondMatch = true;\n            }\n        }\n        if (!firstMatch && !secondMatch)\n            return false;\n\n        emit Verified(txId, satToValue(outputAmount1));\n        \n        return true;\n\n    }\n\n    function redeemScriptToSecretHash(bytes _redeemScript) public pure returns (bytes20, bytes32) {\n        bytes32 secretHash;\n        bytes20 rsHash = hash160(_redeemScript);\n        //stack => OP_IF, 0x04, locktime<4byte>, OP_CHECKLOCKTIMEVERIFY, OP_DROP, OP_SHA256, 0x20<32byte>\n        uint index = 10;\n        uint val;\n        for (uint i = index; i < index + 32; i++) {\n            val *= 256;\n            if (i < _redeemScript.length)\n                val |= uint8(_redeemScript[i]);\n        }\n        secretHash = bytes32(val);\n        \n        return (rsHash, secretHash);\n    }\n\n    // @dev - convert an unsigned integer from little-endian to big-endian representation\n    //\n    // @param _input - little-endian value\n    // @return - input value in big-endian format\n    function flip32Bytes(uint _input) internal pure returns (uint result) {\n        assembly {\n            let pos := mload(0x40)\n            for { let i := 0 } lt(i, 32) { i := add(i, 1) } {\n                mstore8(add(pos, i), byte(sub(31, i), _input))\n            }\n            result := mload(pos)\n        }\n    }\n\n    function hash160(bytes str) internal pure returns (bytes20) {\n        return ripemd160(abi.encodePacked(sha256(str)));\n    }\n\n    function satToValue(uint _sat) internal pure returns (uint) {\n        return _sat * 10 ** 10;\n    }\n}",
  "sourcePath": "/Users/sengayusaku/repo/Swingby/contract/contracts/ScriptVerification.sol",
  "compiler": {
    "name": "solc",
    "version": "0.4.24+commit.e67f0147.Emscripten.clang"
  },
  "schemaVersion": "2.0.1",
  "updatedAt": "2018-08-15T11:08:04.632Z"
}