{
  "contractName": "WitnessEngine",
  "abi": [
    {
      "constant": true,
      "inputs": [
        {
          "name": "",
          "type": "address"
        }
      ],
      "name": "witnesses",
      "outputs": [
        {
          "name": "",
          "type": "bool"
        }
      ],
      "payable": false,
      "stateMutability": "view",
      "type": "function"
    },
    {
      "constant": false,
      "inputs": [
        {
          "name": "_token",
          "type": "address"
        },
        {
          "name": "_value",
          "type": "uint256"
        }
      ],
      "name": "depositToken",
      "outputs": [],
      "payable": false,
      "stateMutability": "nonpayable",
      "type": "function"
    },
    {
      "constant": false,
      "inputs": [],
      "name": "withdraw",
      "outputs": [],
      "payable": false,
      "stateMutability": "nonpayable",
      "type": "function"
    },
    {
      "constant": true,
      "inputs": [
        {
          "name": "",
          "type": "address"
        }
      ],
      "name": "ethBalances",
      "outputs": [
        {
          "name": "",
          "type": "uint256"
        }
      ],
      "payable": false,
      "stateMutability": "view",
      "type": "function"
    },
    {
      "constant": true,
      "inputs": [
        {
          "name": "",
          "type": "address"
        },
        {
          "name": "",
          "type": "address"
        }
      ],
      "name": "tokenBalances",
      "outputs": [
        {
          "name": "",
          "type": "uint256"
        }
      ],
      "payable": false,
      "stateMutability": "view",
      "type": "function"
    },
    {
      "constant": true,
      "inputs": [
        {
          "name": "_user",
          "type": "address"
        }
      ],
      "name": "balanceOf",
      "outputs": [
        {
          "name": "",
          "type": "uint256"
        }
      ],
      "payable": false,
      "stateMutability": "view",
      "type": "function"
    },
    {
      "constant": true,
      "inputs": [],
      "name": "witnessCount",
      "outputs": [
        {
          "name": "",
          "type": "uint256"
        }
      ],
      "payable": false,
      "stateMutability": "view",
      "type": "function"
    },
    {
      "constant": false,
      "inputs": [
        {
          "name": "_token",
          "type": "address"
        }
      ],
      "name": "withdrawToken",
      "outputs": [],
      "payable": false,
      "stateMutability": "nonpayable",
      "type": "function"
    },
    {
      "constant": false,
      "inputs": [],
      "name": "deposit",
      "outputs": [],
      "payable": true,
      "stateMutability": "payable",
      "type": "function"
    },
    {
      "constant": true,
      "inputs": [
        {
          "name": "_token",
          "type": "address"
        },
        {
          "name": "_user",
          "type": "address"
        }
      ],
      "name": "balanceOfToken",
      "outputs": [
        {
          "name": "",
          "type": "uint256"
        }
      ],
      "payable": false,
      "stateMutability": "view",
      "type": "function"
    },
    {
      "constant": true,
      "inputs": [],
      "name": "token",
      "outputs": [
        {
          "name": "",
          "type": "address"
        }
      ],
      "payable": false,
      "stateMutability": "view",
      "type": "function"
    },
    {
      "inputs": [],
      "payable": false,
      "stateMutability": "nonpayable",
      "type": "constructor"
    },
    {
      "payable": true,
      "stateMutability": "payable",
      "type": "fallback"
    },
    {
      "anonymous": false,
      "inputs": [
        {
          "indexed": false,
          "name": "_user",
          "type": "address"
        }
      ],
      "name": "UpdatedWitness",
      "type": "event"
    },
    {
      "anonymous": false,
      "inputs": [
        {
          "indexed": false,
          "name": "_user",
          "type": "address"
        }
      ],
      "name": "RemovedWitness",
      "type": "event"
    },
    {
      "anonymous": false,
      "inputs": [
        {
          "indexed": false,
          "name": "_token",
          "type": "address"
        },
        {
          "indexed": false,
          "name": "_from",
          "type": "address"
        },
        {
          "indexed": false,
          "name": "_value",
          "type": "uint256"
        }
      ],
      "name": "DepositedToken",
      "type": "event"
    },
    {
      "anonymous": false,
      "inputs": [
        {
          "indexed": false,
          "name": "_token",
          "type": "address"
        },
        {
          "indexed": false,
          "name": "_to",
          "type": "address"
        },
        {
          "indexed": false,
          "name": "_value",
          "type": "uint256"
        }
      ],
      "name": "WithdrewToken",
      "type": "event"
    },
    {
      "anonymous": false,
      "inputs": [
        {
          "indexed": false,
          "name": "_from",
          "type": "address"
        },
        {
          "indexed": false,
          "name": "_value",
          "type": "uint256"
        }
      ],
      "name": "Deposited",
      "type": "event"
    },
    {
      "anonymous": false,
      "inputs": [
        {
          "indexed": false,
          "name": "_to",
          "type": "address"
        },
        {
          "indexed": false,
          "name": "_value",
          "type": "uint256"
        }
      ],
      "name": "Withdrew",
      "type": "event"
    },
    {
      "constant": false,
      "inputs": [
        {
          "name": "_token",
          "type": "address"
        }
      ],
      "name": "setToken",
      "outputs": [],
      "payable": false,
      "stateMutability": "nonpayable",
      "type": "function"
    },
    {
      "constant": false,
      "inputs": [
        {
          "name": "_mode",
          "type": "uint256"
        },
        {
          "name": "_user",
          "type": "address"
        }
      ],
      "name": "submitVote",
      "outputs": [],
      "payable": false,
      "stateMutability": "nonpayable",
      "type": "function"
    },
    {
      "constant": false,
      "inputs": [
        {
          "name": "_voteId",
          "type": "uint256"
        }
      ],
      "name": "vote",
      "outputs": [],
      "payable": false,
      "stateMutability": "nonpayable",
      "type": "function"
    },
    {
      "constant": false,
      "inputs": [
        {
          "name": "_voteId",
          "type": "uint256"
        }
      ],
      "name": "exec",
      "outputs": [],
      "payable": false,
      "stateMutability": "nonpayable",
      "type": "function"
    },
    {
      "constant": true,
      "inputs": [
        {
          "name": "_user",
          "type": "address"
        }
      ],
      "name": "isWitness",
      "outputs": [
        {
          "name": "",
          "type": "bool"
        }
      ],
      "payable": false,
      "stateMutability": "view",
      "type": "function"
    }
  ],
  "bytecode": "0x608060405234801561001057600080fd5b50336000908152600260205260409020805460ff19166001908117909155600455610b75806100406000396000f3006080604052600436106100e55763ffffffff7c01000000000000000000000000000000000000000000000000000000006000350416630121b93f81146100f8578063144fa6d714610110578063321c3cf614610131578063338b5dea146101665780633ccfd60b1461018a5780633cfba0e31461019f5780634dbf6c5a146101d25780636969ab77146101f957806370a082311461021d57806375aa85c11461023e5780638947606914610253578063d0e30db014610274578063f59e38b71461027c578063f873cb91146102a3578063fa7643f4146102bb578063fc0c546a146102dc575b60003411156100f6576100f661030d565b005b34801561010457600080fd5b506100f660043561035e565b34801561011c57600080fd5b506100f6600160a060020a03600435166103c0565b34801561013d57600080fd5b50610152600160a060020a0360043516610405565b604080519115158252519081900360200190f35b34801561017257600080fd5b506100f6600160a060020a036004351660243561041a565b34801561019657600080fd5b506100f6610525565b3480156101ab57600080fd5b506101c0600160a060020a03600435166105a5565b60408051918252519081900360200190f35b3480156101de57600080fd5b506101c0600160a060020a03600435811690602435166105b7565b34801561020557600080fd5b506100f6600435600160a060020a03602435166105d4565b34801561022957600080fd5b506101c0600160a060020a0360043516610812565b34801561024a57600080fd5b506101c061082d565b34801561025f57600080fd5b506100f6600160a060020a0360043516610833565b6100f661030d565b34801561028857600080fd5b506101c0600160a060020a0360043581169060243516610943565b3480156102af57600080fd5b506100f660043561096e565b3480156102c757600080fd5b50610152600160a060020a0360043516610a24565b3480156102e857600080fd5b506102f1610a42565b60408051600160a060020a039092168252519081900360200190f35b336000818152602081815260409182902080543490810190915582519384529083015280517f2da466a7b24304f47e87fa2e1e5a81b9831ce54fec19055ce277ca2f39ba42c49281900390910190a1565b3360009081526002602052604081205460ff16151561037c57600080fd5b600580548390811061038a57fe5b90600052602060002090600402019050612a3042038160030154111515156103b157600080fd5b60019081018054909101905550565b600654600160a060020a0316156103d657600080fd5b6006805473ffffffffffffffffffffffffffffffffffffffff1916600160a060020a0392909216919091179055565b60026020526000908152604090205460ff1681565b604080517f23b872dd0000000000000000000000000000000000000000000000000000000081523360048201523060248201526044810183905290518391600160a060020a038316916323b872dd916064808201926020929091908290030181600087803b15801561048b57600080fd5b505af115801561049f573d6000803e3d6000fd5b505050506040513d60208110156104b557600080fd5b5050600160a060020a03831660008181526001602090815260408083203380855290835292819020805487019055805193845290830191909152818101849052517f7a43fc511e5571803e978d5d53bbfb35b899d0c8acdc2039769bfbc77082fa339181900360600190a1505050565b33600081815260208190526040808220805490839055905190929183156108fc02918491818181858888f19350505050158015610566573d6000803e3d6000fd5b50604080513381526020810183905281517fb244b9a17ad633c6e83b7983ee04320484956a68ddbe96a0b70dfca1cf19d723929181900390910190a150565b60006020819052908152604090205481565b600160209081526000928352604080842090915290825290205481565b60006105de610b17565b3360009081526002602052604090205460ff1615156105fc57600080fd5b600660009054906101000a9004600160a060020a0316600160a060020a031663313ce5676040518163ffffffff167c0100000000000000000000000000000000000000000000000000000000028152600401602060405180830381600087803b15801561066857600080fd5b505af115801561067c573d6000803e3d6000fd5b505050506040513d602081101561069257600080fd5b5051600654600160a060020a03908116600090815260016020908152604080832093881683529290522054600a9190910a619c400292508211156106d557600080fd5b5060068054600160a060020a0390811660009081526001602081815260408084209785168085529782528084208054889003905594548416835260038152848320878452815284832080549096019095558351608081018552968752938601818152928601948552426060870190815260058054958601815590915294517f036b6384b5eca791c62761152d0c79bb0604c104a5fb6f4eb0703f3154bb3db060049094029384015590517f036b6384b5eca791c62761152d0c79bb0604c104a5fb6f4eb0703f3154bb3db183015591517f036b6384b5eca791c62761152d0c79bb0604c104a5fb6f4eb0703f3154bb3db28201805473ffffffffffffffffffffffffffffffffffffffff1916919093161790915590517f036b6384b5eca791c62761152d0c79bb0604c104a5fb6f4eb0703f3154bb3db390910155565b600160a060020a031660009081526020819052604090205490565b60045481565b600160a060020a03811660008181526001602090815260408083203380855290835281842080549085905582517fa9059cbb000000000000000000000000000000000000000000000000000000008152600481019290925260248201819052915186959294929363a9059cbb936044808501949293928390030190829087803b1580156108bf57600080fd5b505af11580156108d3573d6000803e3d6000fd5b505050506040513d60208110156108e957600080fd5b505115156108f657600080fd5b60408051600160a060020a038516815233602082015280820183905290517f56e93dc9a8ed3ca4fa5e0477c0ddff18d1c15bf42effb39e071a8868276834329181900360600190a1505050565b600160a060020a03918216600090815260016020908152604080832093909416825291909152205490565b600060058281548110151561097f57fe5b906000526020600020906004020190508060030154612a300142101515156109a657600080fd5b6004546001820154610bb86103e892830204910210610a0957805415156109e35760028101546109de90600160a060020a0316610a51565b610a04565b805460011415610a04576002810154610a0490600160a060020a0316610a75565b610a20565b6002810154610a2090600160a060020a0316610ace565b5050565b600160a060020a031660009081526002602052604090205460ff1690565b600654600160a060020a031681565b600160a060020a03166000908152600260205260409020805460ff19166001179055565b600654600160a060020a039081166000818152600360209081526040808320959094168083529481528382205492825260018152838220948252938452828120805490920190915560029092529020805460ff19169055565b600654600160a060020a03908116600081815260036020908152604080832095909416808352948152838220549282526001815283822094825293909352912080549091019055565b60806040519081016040528060008152602001600081526020016000600160a060020a031681526020016000815250905600a165627a7a7230582026acca1710dc6cf70b46691bed572de44796b8ae0b9379b8ad9f013c733253660029",
  "source": "pragma solidity 0.4.24;\n\nimport \"./FundManager.sol\";\n\n\ncontract WitnessEngine is FundManager {\n\n    mapping(address => bool) public witnesses;\n    mapping(address => mapping(address => uint256)) private tokenLockedBalances;\n    uint public witnessCount;\n\n    struct Vote {\n        uint    mode;\n        uint    count;\n        address user;\n        uint    startTime;\n    }\n\n    Vote[] private votes;\n\n    EIP20Interface public token;\n\n    modifier onlyWitness() {\n        require(witnesses[msg.sender]);\n        _;\n    }\n\n    event UpdatedWitness(address _user);\n    event RemovedWitness(address _user);\n\n    constructor() public { \n        witnesses[msg.sender] = true;\n        witnessCount = 1;\n    }\n\n    function setToken(address _token) public {\n        require(address(token) == 0x0);\n        token = EIP20Interface(_token);\n    }\n\n    function submitVote(uint _mode, address _user) public onlyWitness() {\n        \n        uint256 requireBalance = 40000 * 10 ** token.decimals();\n\n        require(tokenBalances[token][_user] >= requireBalance);\n\n        tokenBalances[token][_user] -= requireBalance;\n        tokenLockedBalances[token][_user] += requireBalance;\n\n        Vote memory vote = Vote({\n            mode: _mode,   // 0 => add, 1 => remove\n            count: 0,\n            user: _user,\n            startTime: block.timestamp\n        });\n\n        votes.push(vote);\n    }\n    \n    function vote(uint _voteId) public onlyWitness() {\n       \n        Vote storage v = votes[_voteId];\n\n        require(v.startTime <= block.timestamp - 3 hours);\n\n        v.count += 1;\n    }\n\n    function exec(uint _voteId) public {\n        Vote storage v = votes[_voteId];\n\n        require(block.timestamp >= v.startTime + 3 hours);\n\n        if (v.count * 1000 >= witnessCount * 1000 / 3000) {\n            if (v.mode == 0) {\n                add(v.user);\n            } else if (v.mode == 1) {\n                remove(v.user);\n            }\n        } else {\n            reset(v.user);\n        }\n    }\n\n    function isWitness(address _user) public view returns (bool) {\n        return witnesses[_user];\n    }\n\n    function add(address _user) internal {\n        witnesses[_user] = true;\n    }\n\n    function remove(address _user) internal {\n        uint amount = tokenLockedBalances[token][_user];\n        tokenBalances[token][_user] += amount;\n        witnesses[_user] = false;\n    }\n\n    function reset(address _user) internal {\n        uint amount = tokenLockedBalances[token][_user];\n        tokenBalances[token][_user] += amount;\n    }\n}\n\n",
  "sourcePath": "/Users/sengayusaku/repo/Swingby/contract/contracts/WitnessEngine.sol",
  "compiler": {
    "name": "solc",
    "version": "0.4.24+commit.e67f0147.Emscripten.clang"
  },
  "schemaVersion": "2.0.1",
  "updatedAt": "2018-08-15T02:55:54.216Z"
}